:100000000C9462000C948A000C948A000C948A0070
:100010000C948A000C948A000C948A000C948A0038
:100020000C948A000C948A000C948A000C94780337
:100030000C948A000C948A000C948A000C948A0018
:100040000C942E030C948A000C948A000C948A0061
:100050000C948A000C948A000C948A000C948A00F8
:100060000C948A000C948A000000000024002700F1
:100070002A0000000000250028002B0000000000DE
:1000800023002600290004040404040404040202DA
:100090000202020203030303030301020408102007
:1000A0004080010204081020010204081020000012
:1000B0000008000201000003040700000000000027
:1000C0000000F80511241FBECFEFD8E0DEBFCDBF82
:1000D00011E0A0E0B1E0EEE6FDE002C005900D9277
:1000E000A232B107D9F721E0A2E2B1E001C01D922E
:1000F000AE36B207E1F710E0C2E6D0E004C02197C7
:10010000FE010E94AF06C136D107C9F70E94340430
:100110000C94B5060C940000AF92BF92CF92DF9280
:10012000EF92FF920F931F93CF93DF936C017B01AC
:100130008B01040F151FEB015E01AE18BF08C0173D
:10014000D10759F06991D601ED91FC910190F081B0
:10015000E02DC6010995892B79F7C501DF91CF9173
:100160001F910F91FF90EF90DF90CF90BF90AF90D5
:100170000895833081F028F4813099F08230A9F01D
:1001800008958730A9F08830C9F08430B1F48091A7
:1001900080008F7D03C0809180008F7780938000E6
:1001A000089584B58F7784BD089584B58F7DFBCF86
:1001B0008091B0008F778093B00008958091B00057
:1001C0008F7DF9CF1F93CF93DF93282F30E0F90174
:1001D000E255FF4F8491F901E656FF4FD491F901A2
:1001E000EA57FF4FC491CC23A9F0162F81110E942A
:1001F000B900EC2FF0E0EE0FFF1FEE58FF4FA59176
:10020000B4918FB7F894EC91111108C0D095DE230A
:10021000DC938FBFDF91CF911F910895DE2BF8CF34
:10022000CF93DF9390E0FC01E656FF4F24918A576D
:100230009F4FFC0184918823D1F090E0880F991F93
:10024000FC01E859FF4FA591B491FC01EE58FF4F16
:10025000C591D491623071F49FB7F8943C91822F8C
:10026000809583238C93E8812E2B28839FBFDF9179
:10027000CF9108958FB7F894EC912E2B2C938FBFCC
:10028000F6CF1F93CF93DF93182FEB0161E00E940D
:100290001001209739F460E0812FDF91CF911F91F9
:1002A0000C94E200CF3FD10511F461E0F5CFE12FCE
:1002B000F0E0E255FF4FE491E33031F140F4E130FA
:1002C000B1F0E230E1F0C038D1057CF7E4CFE7309F
:1002D00029F1E83059F1E430B1F780918000806273
:1002E00080938000D0938B00C0938A0004C084B5B3
:1002F000806884BDC7BDDF91CF911F91089584B5FB
:10030000806284BDC8BDF7CF8091800080688093F3
:100310008000D0938900C0938800EDCF8091B00019
:1003200080688093B000C093B300E5CF8091B000A7
:1003300080628093B000C093B400DDCF3FB7F894E3
:100340008091290190912A01A0912B01B0912C015B
:1003500026B5A89B05C02F3F19F00196A11DB11D20
:100360003FBFBA2FA92F982F8827BC01CD01620F5C
:10037000711D811D911D42E0660F771F881F991F17
:100380004A95D1F70895089590E080E00895FC0122
:1003900001900020E9F73197AF01481B590BBC01D0
:1003A00086E591E00C948C00CF93DF93EC0160E044
:1003B0008E810E94E20061E08E810E94E20060E096
:1003C0008E810E94E2008BE891E00197F1F7DF91C6
:1003D000CF910895CF92DF92EF92FF920F931F93E8
:1003E000CF93DF936C017C0187E0E80EF11CD0E035
:1003F000C0E0062F10E0B8010C2E02C0759567957D
:100400000A94E2F76170F70181917F010E94E20096
:100410002196C430D10579F7C601DF91CF911F91A4
:100420000F91FF90EF90DF90CF900C94D401CF927A
:10043000DF92EF92FF920F931F93CF93DF93EC0124
:10044000F62E642F8C810E94E2008D818F3F19F07F
:1004500060E00E94E2000F2D10E08F8584FF25C030
:100460006E0187E0C80ED11CF12CE12CB8010E2CD6
:1004700002C0759567950A94E2F76170F601819163
:100480006F010E94E200FFEFEF1AFF0A88E0E81612
:10049000F10461F7CE01DF91CF911F910F91FF9091
:1004A000EF90DF90CF900C94D401B80184E0759563
:1004B00067958A95E1F7CE010E94EA016F2DCE0182
:1004C000DF91CF911F910F91FF90EF90DF90CF9030
:1004D0000C94EA0140E0682F86E591E00C94170245
:1004E00081E00E946A028BE39FE10197F1F7089592
:1004F000CF93DF93823029F49091650198609093B7
:1005000065018093690110926A0180E480936B0118
:1005100080E180936C0180E580936D0161E08091C2
:100520005A010E94100180915B018F3F19F061E038
:100530000E94100161E080915C010E941001C6E5FB
:10054000D1E09E01265531408091650184FD0BC0AC
:1005500084E090E021962817390744F461E08E8109
:100560000E941001EECF88E090E0F4CF8BE39DE095
:100570000197F1F760E080915A010E94E20060E08B
:1005800080915C010E94E20080915B018F3F19F035
:1005900060E00E94E2008091650184FD34C063E068
:1005A00086E591E00E94EA01CBE4D6E4CE01019712
:1005B000F1F763E086E591E00E94EA012197F1F707
:1005C00063E086E591E00E94EA0183E592E001970D
:1005D000F1F762E086E591E00E94EA018091650111
:1005E00080620E946A0284E0809366018CE00E942F
:1005F0006A020E94700282E08093670186E0DF91C8
:10060000CF910C946A0280620E946A028BE496E4A5
:100610000197F1F78091650180620E946A0283E58B
:1006200092E00197F1F78091650180620E946A0271
:10063000D5CF90916901691710F06FEF690FE62F20
:10064000F0E0EA5AFE4F9489890F80680C946A02A0
:1006500041E00E94170281E090E008951F920F92FE
:100660000FB60F9211242F933F938F939F93AF93C5
:10067000BF938091250190912601A0912701B0910F
:1006800028013091240123E0230F2D3758F50196DE
:10069000A11DB11D20932401809325019093260173
:1006A000A0932701B09328018091290190912A01FC
:1006B000A0912B01B0912C010196A11DB11D809339
:1006C000290190932A01A0932B01B0932C01BF9193
:1006D000AF919F918F913F912F910F900FBE0F90EF
:1006E0001F90189526E8230F0296A11DB11DD2CFA9
:1006F0001F920F920FB60F9211242F933F934F9397
:100700005F936F937F938F939F93AF93BF93CF9399
:10071000DF93EF93FF9380912301C0912201D0E0FA
:1007200087FF24C0109285001092840080912301DD
:100730008F5F8093230180912301082E000C990B79
:100740008C179D0724F4809123018C30C4F1809193
:10075000840090918500049680349C4908F47AC006
:100760008091840090918500049676C08091230149
:10077000082E000C990B8C179D07C4F6E0912301FD
:100780008E2FEE0F990BFC01EE0FFF1FE80FF91FE4
:10079000E35DFE4F808186FFC9CFE09123018E2F5C
:1007A000EE0F990BFC01EE0FFF1FE80FF91FE35D41
:1007B000FE4F808160E08F730E94E200B7CF2091EE
:1007C000840030918500E09123018E2FEE0F990B6C
:1007D000FC01EE0FFF1FE80FF91FE35DFE4F818163
:1007E0009281820F931F9093890080938800E091FB
:1007F00023018E2FEE0F990BFC01EE0FFF1FE80F68
:10080000F91FE35DFE4F808186FF11C0E091230157
:100810008E2FEE0F990BFC01EE0FFF1FE80FF91F53
:10082000E35DFE4F808161E08F730E94E200FF91E3
:10083000EF91DF91CF91BF91AF919F918F917F9178
:100840006F915F914F913F912F910F900FBE0F903D
:100850001F90189580E49CE990938900809388000C
:100860008FEF80932301E3CFCF93DF9300D01F92CC
:10087000CDB7DEB7789484B5826084BD84B58160DD
:1008800084BD85B5826085BD85B5816085BD80915B
:100890006E00816080936E001092810080918100D3
:1008A00082608093810080918100816080938100CB
:1008B000809180008160809380008091B10084608D
:1008C0008093B1008091B00081608093B0008091EE
:1008D0007A00846080937A0080917A0082608093AD
:1008E0007A0080917A00816080937A0080917A000A
:1008F000806880937A001092C100809151018C3001
:1009000008F051C061E08DE00E941001809151011A
:10091000282F30E0F901EE0FFF1FE20FF31FE35D18
:10092000FE4F9081907C9D609083109252011092B6
:1009300053012CE0622F0E94A306829FB001112474
:1009400030E020E0AB01420F531FFA01EE0FFF1F12
:10095000E40FF51FE35DFE4F908196FD16C02F5FFB
:100960003F4F2C30310571F781110FC0109280007C
:1009700082E0809381001092850010928400B19AE9
:1009800080916F00826080936F00E09151018E2F03
:1009900090E0FC01EE0FFF1FE80FF91FE35DFE4F33
:1009A00080818064808382E00E94780262E08EE031
:1009B0000E94100161E081E00E94100160E085E08A
:1009C0000E9419038CE091E00E94C70161E083E07E
:1009D0000E94190380E191E00E94C7010E949E01DC
:1009E0004B015C0198EEC92E93E0D92EE12CF12C3D
:1009F0000E949E01681979098A099B09683E734023
:100A000081059105A8F321E0C21AD108E108F10897
:100A100038EE830E33E0931EA11CB11CC114D10427
:100A2000E104F10429F770E060E089E00E944101EF
:100A300070E060E08AE00E9441010E947002B8E527
:100A4000EB2EB2E0FB2E18E8C12ED12C04EB802E49
:100A5000912CA12CB12C80E0282E80E0382EECEBDC
:100A6000F0E08491E8EAF0E0F491F983E4E9F0E061
:100A7000F491FA83FF2309F4AAC081110E94B900FE
:100A80002A81E22FF0E0EE0FFF1FE458FF4FA591FF
:100A9000B4918C913981382309F499C061E081E0E7
:100AA0000E94E20060E086E00E9419038CE091E081
:100AB0000E94C70161E083E00E94190389E191E08F
:100AC0000E94C7011092550110925401A091540147
:100AD000B0915501A53BB1050CF068C08091510162
:100AE00089838C3008F058C0809153018701081B1E
:100AF000110987FD1395000F111F000F111F809121
:100B00005201F601E81BF10987FDF395EE0FFF1F77
:100B1000EE0FFF1FFB83EA832F01FF0F66087708A4
:100B2000B7FF02C0B0E0A0E09801012E000C440B1A
:100B3000550B24193509460957090E946A06A50173
:100B400094010E944006420E531E641E751E2A81A7
:100B50003B81421653063CF01B830A834016510624
:100B600014F45B824A828A819B810297880F991FC5
:100B70009B838A834FB7F8949981292F30E0C9016C
:100B8000880F991F820F931FFC01E35DFE4F2A819E
:100B90003B81328321834FBF809154019091550155
:100BA0000196909355018093540190CF68EC70E0CA
:100BB00089E00E94410170E060E08AE00E9441010A
:100BC0002114310409F44BCF0E94000048CF0E9449
:100BD000700270E060E089E00E94410170E060E036
:100BE0008AE00E94410160E081E00E94E200E8CFDB
:100BF000CF93109259011092580184E091E09093A4
:100C000057018093560187E080935A01CFEFC0933C
:100C10005B0186E080935C0185E080935D0184E068
:100C200080935E0183E080935F0182E080936001A6
:100C3000109261011092620110926301109264019E
:100C40001092650181E00E947802809122018C302F
:100C5000A0F491E0980F909322018093510190E0CD
:100C6000FC01EE0FFF1FE80FF91FE35DFE4F88EB5D
:100C70009BE092838183CF910895C0935101FBCF74
:100C8000052E97FB1EF400940E94570657FD07D0CF
:100C90000E94720607FC03D04EF40C945706509540
:100CA0004095309521953F4F4F4F5F4F0895909558
:100CB0008095709561957F4F8F4F9F4F08950E944B
:100CC0009406A59F900DB49F900DA49F800D911D3B
:100CD00011240895B7FF0C945F060E945F06821BE3
:100CE000930B0895A1E21A2EAA1BBB1BFD010DC098
:100CF000AA1FBB1FEE1FFF1FA217B307E407F507CC
:100D000020F0A21BB30BE40BF50B661F771F881FA7
:100D1000991F1A9469F760957095809590959B013D
:100D2000AC01BD01CF010895A29FB001B39FC001E6
:100D3000A39F700D811D1124911DB29F700D811D07
:100D40001124911D0895991B79E004C0991F9617ED
:100D500008F0961B881F7A95C9F780950895EE0FC5
:0E0D6000FF1F0590F491E02D0994F894FFCF49
:100D6E000000000028038C00C401C301474153005A
:100D7E004445544543544F5200444554454354450D
:020D8E0044001F
:00000001FF
