:100000000C9462000C948A000C948A000C94830176
:100010000C9483010C9483010C948A000C948A0044
:100020000C948A000C948A000C948A000C948D0124
:100030000C948A000C948A000C948A000C948A0018
:100040000C9439010C948A000C948A000C948A0058
:100050000C948A000C948A000C948A000C948A00F8
:100060000C948A000C948A000000000024002700F1
:100070002A0000000000250028002B0000000000DE
:1000800023002600290004040404040404040202DA
:100090000202020203030303030301020408102007
:1000A0004080010204081020010204081020000012
:1000B0000008000201000003040700000000000027
:1000C0000000B70311241FBECFEFD8E0DEBFCDBFC5
:1000D00011E0A0E0B1E0E2E9F8E002C005900D9285
:1000E000A030B107D9F721E0A0E0B1E001C01D9236
:1000F000A633B207E1F710E0C2E6D0E004C02197D2
:10010000FE010E944104C136D107C9F70E9449028D
:100110000C9447040C940000833081F028F4813063
:1001200099F08230A9F008958730A9F08830C9F09D
:100130008430B1F4809180008F7D03C08091800075
:100140008F7780938000089584B58F7784BD08955C
:1001500084B58F7DFBCF8091B0008F778093B00006
:1001600008958091B0008F7DF9CF1F93CF93DF93D7
:10017000282F30E0F901E255FF4F8491F901E6564E
:10018000FF4FD491F901EA57FF4FC491CC23A9F056
:10019000162F81110E948C00EC2FF0E0EE0FFF1F54
:1001A000EE58FF4FA591B4918FB7F894EC911111CF
:1001B00008C0D095DE23DC938FBFDF91CF911F91D4
:1001C0000895DE2BF8CFCF93DF9390E0FC01E65645
:1001D000FF4F24918A579F4FFC0184918823D1F0CF
:1001E00090E0880F991FFC01E859FF4FA591B49149
:1001F000FC01EE58FF4FC591D491623071F49FB766
:10020000F8943C91822F809583238C93E8812E2B48
:1002100028839FBFDF91CF9108958FB7F894EC9119
:100220002E2B2C938FBFF6CF3FB7F8948091090106
:1002300090910A01A0910B01B0910C0126B5A89BE9
:1002400005C02F3F19F00196A11DB11D3FBFBA2F68
:10025000A92F982F8827BC01CD01620F711D811D28
:10026000911D42E0660F771F881F991F4A95D1F7AD
:1002700008951F920F920FB60F9211242F933F9360
:100280008F939F93AF93BF93809105019091060147
:10029000A0910701B09108013091040123E0230FE0
:1002A0002D3758F50196A11DB11D209304018093AF
:1002B000050190930601A0930701B0930801809176
:1002C000090190910A01A0910B01B0910C010196D6
:1002D000A11DB11D8093090190930A01A0930B0108
:1002E000B0930C01BF91AF919F918F913F912F914E
:1002F0000F900FBE0F901F90189526E8230F0296BF
:10030000A11DB11DD2CF1F920F920FB60F921124D3
:100310000F900FBE0F901F9018951F920F920FB65F
:100320000F9211242F933F934F935F936F937F937B
:100330008F939F93AF93BF93CF93DF93EF93FF93ED
:1003400080910101C0910001D0E087FF24C010928C
:10035000850010928400809101018F5F80930101DC
:1003600080910101082E000C990B8C179D0724F435
:10037000809101018C30C4F18091840090918500BE
:10038000049680349C4908F47AC08091840090914E
:100390008500049676C080910101082E000C990B0F
:1003A0008C179D07C4F6E09101018E2FEE0F990B7B
:1003B000FC01EE0FFF1FE80FF91FE35FFE4F808186
:1003C00086FFC9CFE09101018E2FEE0F990BFC0142
:1003D000EE0FFF1FE80FF91FE35FFE4F808160E023
:1003E0008F730E94B500B7CF2091840030918500B3
:1003F000E09101018E2FEE0F990BFC01EE0FFF1F14
:10040000E80FF91FE35FFE4F81819281820F931FF6
:100410009093890080938800E09101018E2FEE0F68
:10042000990BFC01EE0FFF1FE80FF91FE35FFE4F72
:10043000808186FF11C0E09101018E2FEE0F990B94
:10044000FC01EE0FFF1FE80FF91FE35FFE4F8081F5
:1004500061E08F730E94B500FF91EF91DF91CF9122
:10046000BF91AF919F918F917F916F915F914F91CC
:100470003F912F910F900FBE0F901F90189580E421
:100480009CE990938900809388008FEF809301010D
:10049000E3CF789484B5826084BD84B5816084BDE7
:1004A00085B5826085BD85B5816085BD80916E0012
:1004B000816080936E001092810080918100826043
:1004C0008093810080918100816080938100809180
:1004D00080008160809380008091B100846080936F
:1004E000B1008091B00081608093B00080917A006B
:1004F000846080937A0080917A00826080937A0091
:1005000080917A00816080937A0080917A0080687F
:1005100080937A001092C10062E08EE00E94E300B6
:1005200061E087E00E94E30061E08AE00E94E3006E
:10053000809131018C3008F051C061E08DE00E9463
:10054000E30080913101282F30E0F901EE0FFF1F09
:10055000E20FF31FE35FFE4F9081907C9D609083DC
:1005600010923201109233012CE0622F0E94350468
:10057000829FB001112430E020E0AB01420F531FF5
:10058000FA01EE0FFF1FE40FF51FE35FFE4F9081AE
:1005900096FD16C02F5F3F4F2C30310571F781114A
:1005A0000FC01092800082E080938100109285003D
:1005B00010928400B19A80916F00826080936F00E6
:1005C000E09131018E2F90E0FC01EE0FFF1FE80F4C
:1005D000F91FE35FFE4F808180648083B4EB4B2E74
:1005E000512C612C712CC0E02C2EC0E03C2EECEB89
:1005F000F0E08491E8EAF0E0C491E4E9F0E0D4911D
:10060000DD2309F4B1C081110E948C00ED2FF0E0D0
:10061000EE0FFF1FE458FF4FA591B4918C91C823B2
:1006200009F4A2C061E087E00E94B5001092350194
:1006300010923401A0913401B0913501A53BB10570
:100640000CF05EC0B0903101FBE0FB1508F44EC029
:100650008091330108E512E0081B110987FD13950D
:10066000000F111F000F111F80913201C8E8D0E068
:10067000C81BD10987FDD395CC0FDD1FCC0FDD1F23
:100680006E010D2E000CEE08FF08B7FF02C0B0E0AF
:10069000A0E09801012E000C440B550B2C193D09CC
:1006A0004E095F090E94FC03A30192010E94D2033C
:1006B000C20ED31EE41EF51ECC16DD062CF0E8019A
:1006C000C016D1060CF4E6012297CC0FDD1F4FB700
:1006D000F8942B2D30E0C901880F991F820F931FCA
:1006E000FC01E35FFE4FD283C1834FBF8091340191
:1006F00090913501019690933501809334019ACF02
:1007000061E08AE00E94B5000E9414014B015C0187
:1007100088EEC82E83E0D82EE12CF12C0E94140123
:10072000681979098A099B09683E7340810591051A
:10073000A8F321E0C21AD108E108F10888EE880E7A
:1007400083E0981EA11CB11CC114D104E104F10482
:1007500029F760E08AE00E94B5002114310409F411
:1007600046CF0E94000043CF60E087E0F4CF809145
:1007700000018C3098F491E0980F909300018093E1
:10078000310190E0FC01EE0FFF1FE80FF91FE35F5E
:10079000FE4F88EB9BE09283818308958FEF8093D7
:1007A00031010895052E97FB1EF400940E94E90381
:1007B00057FD07D00E94040407FC03D04EF40C94AC
:1007C000E90350954095309521953F4F4F4F5F4F2E
:1007D000089590958095709561957F4F8F4F9F4FAD
:1007E00008950E942604A59F900DB49F900DA49F8C
:1007F000800D911D11240895B7FF0C94F1030E9400
:10080000F103821B930B0895A1E21A2EAA1BBB1BB6
:10081000FD010DC0AA1FBB1FEE1FFF1FA217B307CC
:10082000E407F50720F0A21BB30BE40BF50B661FE2
:10083000771F881F991F1A9469F7609570958095A6
:1008400090959B01AC01BD01CF010895A29FB0011D
:10085000B39FC001A39F700D811D1124911DB29FF4
:10086000700D811D1124911D0895991B79E004C01C
:10087000991F961708F0961B881F7A95C9F78095DF
:100880000895EE0FFF1F0590F491E02D0994F89460
:02089000FFCF98
:00000001FF
